:100000000C943A000C944F000C944F000C944F0049
:100010000C944F000C944F000C944F000C944F0024
:100020000C944F000C944F000C944F000C944F0014
:100030000C944F000C944F000C944F000C944F0004
:100040000C944F000C944F000C944F000C944F00F4
:100050000C944F0074017601570159015B015D0159
:100060005F01610163016501670169016B016D0158
:100070006F01710111241FBECFE5D8E0DEBFCDBFF7
:1000800011E0A0E6B0E0E4E3FAE002C005900D92D2
:10009000A231B107D9F70E945F020C9418050C94A5
:1000A00000004130A1F5813089F028F08230C9F09C
:1000B000833011F108952AB381E090E002C0880FE7
:1000C000991F6A95E2F7822B8ABB089527B381E0D6
:1000D00090E002C0880F991F6A95E2F7822B87BBD8
:1000E000089524B381E090E002C0880F991F6A95BB
:1000F000E2F7822B84BB089521B381E090E002C037
:10010000880F991F6A95E2F7822B81BB0895813091
:1001100091F028F08230D9F0833029F108952AB384
:1001200081E090E002C0880F991F6A95E2F7809500
:1001300082238ABB089527B381E090E002C0880F34
:10014000991F6A95E2F78095822387BB089524B3AF
:1001500081E090E002C0880F991F6A95E2F78095D0
:10016000822384BB089521B381E090E002C0880F10
:10017000991F6A95E2F78095822381BB08954130EB
:10018000A1F5813089F028F08230C9F0833011F177
:1001900008952BB381E090E002C0880F991F6A9503
:1001A000E2F7822B8BBB089528B381E090E002C078
:1001B000880F991F6A95E2F7822B88BB089525B3B3
:1001C00081E090E002C0880F991F6A95E2F7822BC8
:1001D00085BB089522B381E090E002C0880F991F8B
:1001E0006A95E2F7822B82BB0895813091F028F066
:1001F0008230D9F0833029F108952BB381E090E06B
:1002000002C0880F991F6A95E2F7809582238BBB05
:10021000089528B381E090E002C0880F991F6A9585
:10022000E2F78095822388BB089525B381E090E0B2
:1002300002C0880F991F6A95E2F78095822385BBDB
:10024000089522B381E090E002C0880F991F6A955B
:10025000E2F78095822382BB0895813041F028F037
:10026000823039F0833039F008956ABB089567BB56
:10027000089564BB089561BB0895813041F028F072
:10028000823039F0833039F008956BBB089568BB34
:10029000089565BB089562BB089590E0FC01319715
:1002A000E031F10500F5E65DFF4F0C94D20489E0E2
:1002B00008958FE2089584E0089585E0089586E02A
:1002C00008958AE2089581E0089582E0089583E028
:1002D00008958DE2089583E6089580E008958DE302
:1002E00008958BE20895089587E0089588E00895C1
:1002F00080E022C020E130E0082E02C0220F331F30
:100300000A94E2F72ABB20952BBB90E012C029B3D8
:1003100030E0092E02C0359527950A94E2F720FDBA
:1003200007C0990F990F890F8F5F0E944D010895A3
:100330009F5F943060F38F5F8430E0F2D9CF92B347
:100340009F7D92BB92B39F7B92BBE9EFF0E0319728
:10035000F1F700C0000092B3906892BBE9EFF0E0C3
:100360003197F1F700C0000088BB89EF90E001975A
:10037000F1F700C0000082B38F7782BB089587B386
:100380006FEF0E942D0180EE81BB83ED90E301971A
:10039000F1F700C0000088E30E949F0189EF90E020
:1003A0000197F1F700C000008CE00E949F0189EFE7
:1003B00090E00197F1F700C0000081E00E949F01EA
:1003C00083EF91E00197F1F700C00000089592B328
:1003D000906292BB92B39F7B92BBE9EFF0E03197C2
:1003E000F1F700C0000092B3906892BBE9EFF0E033
:1003F0003197F1F700C0000088BB89EF90E00197CA
:10040000F1F700C0000082B38F7782BB08950F938D
:100410001F93CF938C01C0E003C00E94E701CF5F20
:10042000F801EC0FF11D80818111F7CFCF911F9161
:100430000F910895813031F070F0823031F08330C7
:1004400039F00AC090E4960F07C090E1960F04C0FF
:1004500090E5960F01C0962F892F80680E949F011A
:10046000089581E00E949F010895CF93DF93EA01F0
:100470000E941A02CE010E940702DF91CF910895D7
:10048000CF93DF93CDB7DEB76E970FB6F894DEBF8C
:100490000FBECDBF4AE050E0BE016F5F7F4F90E0DE
:1004A0000E94D804CE0101960E9407026E960FB6F4
:1004B000F894DEBF0FBECDBFDF91CF91089516E057
:1004C000D3E06FE082E00E942D0160EF82E00E94A5
:1004D0003D010E94BF0140E650E062E080E00E94E2
:1004E00035022FE986E891E0215080409040E1F705
:1004F00000C0000041E060E083E00E9451000F2E48
:10050000F1EE8F2EF0E19F2EA12CB12CF02D0F2EAD
:10051000F2ED4F2EF4E05F2E612C712CF02D0E9435
:1005200031024EE650E062E080E00E9435022FE9A1
:1005300086E891E0215080409040E1F700C0000043
:100540000E9431028BE790E00E94070248E850E0E9
:1005500060E081E00E9435020E947801813009F05C
:10056000BDC00E94310286E990E00E940702C0E00F
:10057000C12CD12C76014AC08EE00E949F0187EAEF
:1005800091E60197F1F700C000008CE00E949F0106
:100590000E947801082F8A3038F50E9440028FE4CB
:1005A00093EC0197F1F700C000006BE06C0F42EA9A
:1005B00050E080E00E943502C00ED11CE11CF11C0D
:1005C000CC0CDD1CEE1CFF1CD701C601880F991F47
:1005D000AA1FBB1F880F991FAA1FBB1FC80ED91EB9
:1005E000EA1EFB1ECF5F12C00E94310244EA50E0B7
:1005F00061E080E00E9435029FE926E881E09150A9
:1006000020408040E1F700C0000003C0C43008F47F
:10061000B3CFC701B6012AE030E040E050E00E94CD
:10062000B00469017A019FE926E881E091502040F9
:100630008040E1F700C000000E9431024C145D04CC
:100640006E047F0411F582EB90E00E94070241E006
:1006500060E083E00E94BF0085B3807F8D2B85BB67
:100660009FEB27E289E0915020408040E1F700C0F5
:10067000000085B3807F812B85BB40E060E083E094
:100680000E94BF000E9431024ACF8C149D04AE0428
:10069000BF0491F44FEB50E061E080E00E9435022E
:1006A0009FE32DE083E0915020408040E1F700C0BF
:1006B00000000E94310233CF4CEC50E061E080E05A
:1006C0000E9435029FE926E881E091502040804059
:1006D000E1F700C000000E94310221CF823009F012
:1006E0002DC10E9431028BED90E00E940702C0E014
:1006F000C12CD12C76014AC08EE00E949F018FE46C
:1007000093EC0197F1F700C000008CE00E949F017C
:100710000E947801082F8A3038F50E9440028FE449
:1007200093EC0197F1F700C000006BE06C0F42EA18
:1007300050E080E00E943502C00ED11CE11CF11C8B
:10074000CC0CDD1CEE1CFF1CD701C601880F991FC5
:10075000AA1FBB1F880F991FAA1FBB1FC80ED91E37
:10076000EA1EFB1ECF5F12C00E94310244EA50E035
:1007700061E080E00E9435029FE926E881E0915027
:1007800020408040E1F700C0000003C0C43008F4FE
:10079000B3CFC701B6012AE030E040E050E00E944C
:1007A000B00469017A019FE926E881E09150204078
:1007B0008040E1F700C000000E9431024C145D044B
:1007C0006E047F0409F0A8C087EE90E00E94070243
:1007D00043EF50E060E081E00E943502C0E0C12CB0
:1007E000D12C760142C08EE00E949F018FE493ECF1
:1007F0000197F1F700C000008CE00E949F010E9469
:100800007801082F8A30C0F40F2EFBE0BF2EF02DA8
:10081000BC0E6B2D80E00E941A02802F0E944002C5
:100820008FE493EC0197F1F700C0000042EA50E03A
:100830006B2D80E00E943502D701C601800F911D0B
:10084000A11DB11D880F991FAA1FBB1F6C017D013F
:10085000CC0CDD1CEE1CFF1CCC0CDD1CEE1CFF1CAC
:10086000C80ED91EEA1EFB1ECF5FC43008F4BBCFF2
:10087000C701B6012AE030E040E050E00E94B00439
:10088000422E532E642E752E622F732F842F952F98
:10089000812C912C540120C02AE030E040E050E04F
:1008A0000E94B004880C991CAA1CBB1C7501640131
:1008B000CC0CDD1CEE1CFF1CCC0CDD1CEE1CFF1C4C
:1008C0008C0C9D1CAE1CBF1C860E971EA81EB91E4C
:1008D000622F732F842F952F611571058105910566
:1008E000D9F69FE926E881E0915020408040E1F769
:1008F00000C000000E94310280E091E00E940702E7
:100900009FE926E881E0915020408040E1F700C057
:1009100000000E94310203CE4CEC50E061E080E028
:100920000E9435029FE926E881E0915020408040F6
:10093000E1F700C000000E943102F1CD0E943102B7
:1009400044EA50E061E080E00E9435029FE926E839
:1009500081E0915020408040E1F700C00000DFCDF1
:10096000A1E21A2EAA1BBB1BFD010DC0AA1FBB1FB3
:10097000EE1FFF1FA217B307E407F50720F0A21B25
:10098000B30BE40BF50B661F771F881F991F1A9492
:1009900069F760957095809590959B01AC01BD01BC
:1009A000CF010895EE0FFF1F0590F491E02D0994FB
:1009B0004532510520F4423010F00C94E304FB0161
:1009C0001082CB010895BB274A3031F4992322F4D9
:1009D000BDE2909581959F4F0C94EF04BB27FB01DE
:1009E0005527AA27880F991FAA1FA41710F0A41B28
:1009F00083955051B9F7A05DAA3308F0A95DA19382
:100A0000009779F7B111B1931192CB010C940805BD
:100A1000DC01FC01672F71917723E1F7329704C065
:100A20007C916D9370836291AE17BF07C8F30895F0
:040A3000F894FFCF68
:100A340057656C636F6D65204261636B200043688A
:100A44006F73652061204D6F646500312D456E74B0
:100A54006572205061737300322D4368616E67655F
:100A640020506173730050617373776F7264203A1E
:100A740020002A00496E76616C696420496E7075A5
:100A8400740057656C636F6D65204261636B00434E
:100A9400616C6C696E6720203132320057726F6E60
:100AA400672050617373776F7264004F6C642050D9
:100AB400617373203A20004E657720506173732070
:100AC4003A20004A757374204E756D626572730026
:100AD40050617373776F7264206368616E676564D5
:020AE400000010
:00000001FF
