:100000000C942A000C943F000C943F000C943F0089
:100010000C943F000C943F000C943F000C943F0064
:100020000C943F000C943F000C943F000C943F0054
:100030000C943F000C943F000C943F000C943F0044
:100040000C943F000C943F000C943F000C943F0034
:100050000C943F0011241FBECFE5D8E0DEBFCDBF1A
:1000600010E0A0E6B0E0E4ECF6E002C005900D92EE
:10007000A837B107D9F70E9414010C9460030C94BF
:10008000000080E487B987E886B90895877097B142
:10009000987F892B87B986B1806486B93699FECF5F
:1000A00084B195B10895813041F028F0823039F063
:1000B000833039F008956ABB089567BB089564BB27
:1000C000089561BB089592B39F7D92BB92B39F7BCD
:1000D00092BBE9EFF0E03197F1F700C0000092B376
:1000E000906892BBE9EFF0E03197F1F700C00000B3
:1000F00088BB89EF90E00197F1F700C0000082B360
:100100008F7782BB089587B36FEF0E94530080EE14
:1001100081BB83ED90E30197F1F700C0000088E315
:100120000E94630089EF90E00197F1F700C00000A2
:100130008CE00E94630089EF90E00197F1F700C026
:10014000000081E00E94630083EF91E00197F1F7E6
:1001500000C00000089592B3906292BB92B39F7B5F
:1001600092BBE9EFF0E03197F1F700C0000092B3E5
:10017000906892BBE9EFF0E03197F1F700C0000022
:1001800088BB89EF90E00197F1F700C0000082B3CF
:100190008F7782BB08950F931F93CF938C01C0E09C
:1001A00003C00E94AB00CF5FF801EC0FF11D80810E
:1001B0008111F7CFCF911F910F910895813031F0C8
:1001C00070F0823031F0833039F00AC090E4960F3D
:1001D00007C090E1960F04C090E5960F01C0962FDE
:1001E000892F80680E9463000895CF93DF93CDB775
:1001F000DEB76E970FB6F894DEBF0FBECDBF4AE0F4
:1002000050E0BE016F5F7F4F90E00E942003CE015F
:1002100001960E94CB006E960FB6F894DEBF0FBE1B
:10022000CDBFDF91CF9108950E9441000E947601D9
:100230000E9483008FB780688FBF81E00E944600D4
:10024000BC0180E090E00E94250227ED33EA40E007
:1002500050E40E9484010E94F601C62F61E080E014
:100260000E94DE0080E690E00E94CB0065E081E025
:100270000E94DE008C2F0E94F5008FE690E00E9425
:10028000CB00CD3120F088E40E94800109C0C63146
:1002900020F086E40E94800103C088E50E9480016E
:1002A00080E00E94460028E833E1AC01429FC00193
:1002B000439F900D529F900D1124692F772780E066
:1002C00090E00E94250223E333E343E750E40E94D9
:1002D000B3020E94F6016039714020F48CE40E9460
:1002E0008001ABCF88E50E948001A7CF82E08BB967
:1002F00088E18AB986E880BD10BC8CE089B9089590
:100300005D9BFECF8CB908950E9498010C947902F0
:100310000E94720258F00E946B0240F029F45F3F85
:1003200029F00C94620251110C94AD020C946802F5
:100330000E948A0268F39923B1F3552391F3951B28
:10034000550BBB27AA2762177307840738F09F5FF6
:100350005F4F220F331F441FAA1FA9F335D00E2E63
:100360003AF0E0E832D091505040E695001CCAF7D0
:100370002BD0FE2F29D0660F771F881FBB1F261793
:1003800037074807AB07B0E809F0BB0B802DBF016A
:10039000FF2793585F4F3AF09E3F510578F00C9439
:1003A00062020C94AD025F3FE4F3983ED4F386956D
:1003B00077956795B795F7959F5FC9F7880F911D5A
:1003C0009695879597F90895E1E0660F771F881F46
:1003D000BB1F621773078407BA0720F0621B730BF9
:1003E000840BBA0BEE1F88F7E09508950E949202E5
:1003F00088F09F5798F0B92F9927B751B0F0E1F0E6
:10040000660F771F881F991F1AF0BA95C9F714C095
:10041000B13091F00E94AC02B1E008950C94AC02AE
:10042000672F782F8827B85F39F0B93FCCF38695CE
:1004300077956795B395D9F73EF49095809570952B
:1004400061957F4F8F4F9F4F0895E89409C097FBA8
:100450003EF490958095709561957F4F8F4F9F4F9B
:100460009923A9F0F92F96E9BB279395F6958795DF
:1004700077956795B795F111F8CFFAF4BB0F11F4A2
:1004800060FF1BC06F5F7F4F8F4F9F4F16C0882349
:1004900011F096E911C0772321F09EE8872F762F7F
:1004A00005C0662371F096E8862F70E060E02AF0C0
:1004B0009A95660F771F881FDAF7880F96958795AC
:1004C00097F9089597F99F6780E870E060E00895D4
:1004D0009FEF80EC089500240A941616170618065C
:1004E0000906089500240A94121613061406050638
:1004F0000895092E0394000C11F4882352F0BB0FC9
:1005000040F4BF2B11F460FF04C06F5F7F4F8F4F2B
:100510009F4F089557FD9058440F551F59F05F3F66
:1005200071F04795880F97FB991F61F09F3F79F015
:1005300087950895121613061406551FF2CF469597
:10054000F1DF08C0161617061806991FF1CF869519
:100550007105610508940895E894BB2766277727FD
:10056000CB0197F908950E94C6020C9479020E946B
:100570006B0238F00E94720220F0952311F00C9467
:1005800062020C94680211240C94AD020E948A024B
:1005900070F3959FC1F3950F50E0551F629FF001D6
:1005A000729FBB27F00DB11D639FAA27F00DB11DEF
:1005B000AA1F649F6627B00DA11D661F829F222778
:1005C000B00DA11D621F739FB00DA11D621F839FFF
:1005D000A00D611D221F749F3327A00D611D231FD5
:1005E000849F600D211D822F762F6A2F11249F5723
:1005F00050409AF0F1F088234AF0EE0FFF1FBB1F26
:10060000661F771F881F91505040A9F79E3F5105E4
:1006100080F00C9462020C94AD025F3FE4F3983ECC
:10062000D4F3869577956795B795F795E7959F5F8E
:10063000C1F7FE2B880F911D9695879597F9089520
:100640004532510520F4423010F00C942B03FB018D
:100650001082CB010895BB274A3031F4992322F44C
:10066000BDE2909581959F4F0C943703BB27FB010A
:100670005527AA27880F991FAA1FA41710F0A41B9B
:1006800083955051B9F7A05DAA3308F0A95DA193F5
:10069000009779F7B111B1931192CB010C945003EB
:1006A000DC01FC01672F71917723E1F7329704C0D9
:1006B0007C916D9370836291AE17BF07C8F3089564
:0406C000F894FFCFDC
:1006C4005468652054656D702069733A20200020B9
:0806D40043202020202000003B
:00000001FF
