:100000000C942A000C9434000C9434000C943400AA
:100010000C9434000C9434000C9434000C94340090
:100020000C9434000C9434000C9434000C94340080
:100030000C9434000C9434000C9434000C94340070
:100040000C9434000C9434000C9434000C94340060
:100050000C94340011241FBECFE5D8E0DEBFCDBF25
:100060000E9422010C9496010C9400004130A1F5ED
:10007000813089F028F08230C9F0833011F1089581
:100080002AB381E090E002C0880F991F6A95E2F7D9
:10009000822B8ABB089527B381E090E002C0880FCD
:1000A000991F6A95E2F7822B87BB089524B381E0FC
:1000B00090E002C0880F991F6A95E2F7822B84BBFB
:1000C000089521B381E090E002C0880F991F6A95DE
:1000D000E2F7822B81BB0895813091F028F08230C5
:1000E000D9F0833029F108952AB381E090E002C06D
:1000F000880F991F6A95E2F7809582238ABB08953D
:1001000027B381E090E002C0880F991F6A95E2F75B
:100110008095822387BB089524B381E090E002C0DC
:10012000880F991F6A95E2F78095822384BB089512
:1001300021B381E090E002C0880F991F6A95E2F731
:100140008095822381BB08954130A1F5813089F0EB
:1001500028F08230C9F0833011F108952BB381E08B
:1001600090E002C0880F991F6A95E2F7822B8BBB43
:10017000089528B381E090E002C0880F991F6A9526
:10018000E2F7822B88BB089525B381E090E002C09E
:10019000880F991F6A95E2F7822B85BB089522B3D9
:1001A00081E090E002C0880F991F6A95E2F7822BE8
:1001B00082BB0895813091F028F08230D9F08330ED
:1001C00029F108952BB381E090E002C0880F991FB8
:1001D0006A95E2F7809582238BBB089528B381E06E
:1001E00090E002C0880F991F6A95E2F780958223FC
:1001F00088BB089525B381E090E002C0880F991F65
:100200006A95E2F78095822385BB089522B381E049
:1002100090E002C0880F991F6A95E2F780958223CB
:1002200082BB0895813041F028F0823039F083306C
:1002300039F008956BBB089568BB089565BB0895B8
:1002400062BB08950E94880141E060E081E00E9465
:10025000360041E061E081E00E94360041E060E06C
:1002600082E00E94360041E061E082E00E943600B8
:1002700041E062E082E00E9436000E9492018834F0
:10028000A9F441E060E081E00E94A40041E061E067
:1002900081E00E94A40041E062E082E00E94A400AC
:1002A00041E061E082E00E94A40023C00E9492012C
:1002B000863481F441E060E081E00E94A40040E0E7
:1002C00061E081E00E94A40041E061E082E00E94E0
:1002D000A4000FC040E060E081E00E94A40040E084
:1002E00061E081E00E94A40040E062E082E00E94C0
:1002F000A4000E9492018C3431F441E060E082E07D
:100300000E94A400BACF60E082E00E941201B5CF43
:1003100082E08BB988E18AB986E880BD10BC8CE0A8
:1003200089B908955F9BFECF8CB10895F894FFCFF3
:00000001FF
